:1000000016C1000044C1000042C1000040C1000010
:100010003EC100003CC100003AC1000038C10000F0
:1000200036C10000E0C20000DEC20000DCC20000F9
:100030002EC100002CC100002AC1000028C1000010
:1000400026C1000024C1000022C1000020C1000020
:100050001EC100001CC100001AC100000C947808E9
:1000600016C10000A7C60000DBC6000010C10000DA
:100070000EC100000CC100000AC1000008C1000050
:1000800006C1000004C1000002C1000000C1000060
:10009000FEC00000FCC00000FAC00000F8C0000074
:1000A000F6C00000F4C00000F2C00000F0C0000084
:1000B000EEC00000ECC00000EAC00000E8C0000094
:1000C000E6C00000E4C00000E2C00000E0C00000A4
:1000D000DEC00000DCC00000DAC00000D8C00000B4
:1000E000D6C00000C204C504B404B804BE04FC04B5
:1000F000C904CD04D304D704DB04E104E504E90416
:10010000FC04EF04F304F70400000A0B02090C0DD1
:100110000E080703040100000000000000000000BA
:1001200000000000000000000000000000000000CF
:10013000000000001211100000000000000000008C
:1001400000000000000000000000000000000102AC
:1001500010202008081020401020408002010201D9
:100160000804020101020408102040808040201091
:1001700008040201800402018040201008040201EA
:100180000804020101020408102040800102040852
:10019000102040800505050507050808080802022B
:1001A00002020A0A08080404040401010101010111
:1001B00001010303030303030303040707070C0CF4
:1001C0000C0C0C0C0C0C02020202060606060606BB
:1001D00006060B0B0B0B0B0B0B0B00002000230078
:1001E000260029002C002F0032000001000003012E
:1001F0000601090100002200250028002B002E0026
:100200003100340002010000050108010B0100006B
:100210002100240027002A002D00300033000101B6
:100220000000040107010A01650142076B01112466
:100230001FBECFEFD1E2DEBFCDBF00E00CBF12E0AA
:10024000A0E0B2E0E8E4F3E100E00BBF02C00790F9
:100250000D92A439B107D9F723E0A4E9B2E001C0B7
:100260001D92AB3DB207E1F712E0CCE2D2E000E034
:1002700006C022970109FE010BBF0E947B09C8320C
:10028000D10780E00807A9F729D70C949309B8CEC5
:100290006115710581F0DB010D900020E9F7AD01DA
:1002A00041505109461B570BDC01ED91FC91028036
:1002B000F381E02D199480E090E00895DC01ED9148
:1002C000FC910190F081E02D199420E04BE06AE070
:1002D00082ED92E05AC282ED92E003C226E040E84D
:1002E00055E260E070E085E393E004D540E855E234
:1002F00060E070E082ED92E076D262E072E082ED42
:1003000092E02BD660910002709101024AE050E029
:1003100082ED92E0DBD66CE072E082ED92E01DD6D9
:1003200068E172E085E393E018D685E393E0D3D3E8
:10033000892BD9F385E393E0E7D3209194023091A0
:100340009502F901EA56FD4F80838A30D9F4108274
:1003500085E393E00AD66CE272E085E393E0FDD595
:1003600066E972E085E393E003D682ED92E0FDD585
:1003700066E972E082ED92E0F0D56CE372E082ED26
:1003800092E0F6C58D3019F32F5F3F4F3093950201
:1003900020939402CACFCF9382ED92E0C1D0892BF3
:1003A00039F082ED92E02FD0BC0185E393E086DF47
:1003B00085E393E090D3892B21F166E972E082ED29
:1003C00092E066DF68E572E082ED92E061DF64E56D
:1003D00072E085E393E05CDF85E393E07CD3892BD7
:1003E00081F085E393E090D3C82F682F82ED92E0EF
:1003F0002BD06C2F772767FD709585E393E05EDF48
:10040000EBCFCF9108952091330330913403281717
:100410003907B9F49091F1028091F202981789F0AE
:10042000E091F102F0E0ED50FD4F80812091F1026A
:1004300030E02F5F3F4F2F7333272093F10290E07E
:1004400008958FEF9FEF08951F93CF93DF93DC0103
:100450005C968D919C915D97009749F481E090E0C6
:1004600013969C938E93129780E090E03BC0519638
:10047000ED91FC91529750962C915097322F3095D8
:100480001FB75E964C915E9741FB772770F941FD4F
:100490006095F8944081772311F0422B01C04323EB
:1004A0004083EC012197F1F748E0508160FF02C0E2
:1004B000522B01C053235083EC012197F1F766952D
:1004C000415099F78081772311F0832301C0822B5B
:1004D00080831FBF5C968D919C915D970197F1F78A
:1004E00081E090E0DF91CF911F9108952091330337
:1004F000309134032817390781F49091F1028091EB
:10050000F202981751F0E091F102F0E0ED50FD4F4A
:100510008081992787FD909508958FEF9FEF08952B
:1005200020913303309134032817390761F4809107
:10053000F2022091F10290E0805C9F4F821B9109B2
:1005400060E470E081C680E090E00895209133037C
:10055000309134032817390739F48FB7F894109283
:10056000F2021092F1028FBF0895E0913303F091EF
:100570003403E817F90769F4A389B4899C91858944
:10058000809589238C93109234031092330381E079
:10059000089580E00895CF93DF93EC018A8D9B8DC1
:1005A000892BE9F080913303909134038C179D07D8
:1005B000B1F0009709F0D9DF8E8D8E7F8E8F10926B
:1005C000F2021092F102D0933403C0933303EB890B
:1005D000FC8980819D89892B808381E001C080E036
:1005E000DF91CF9108951F920F920FB60F921124B1
:1005F0000BB60F922F933F934F935F936F937F931D
:100600008F939F93AF93BF93EF93FF93E091330347
:10061000F0913403309709F451C0868DA685B785D3
:10062000958581FF04C08C91892329F447C08C9162
:10063000892309F043C0A389B4899C918589809559
:1006400089238C93868997890197F1F7208D318DC5
:10065000A685B785758558E040E0C9010197F1F797
:10066000842F90E095958795482F6C91672309F02A
:100670004068515091F7868D81FD40958091F2023E
:1006800090E001968F7399272091F102281749F085
:10069000A091F202B0E0AD50BD4F4C938093F202B6
:1006A00003C0868D8160868F828D938D0197F1F7CF
:1006B000A389B4898C919589892B8C93FF91EF91B3
:1006C000BF91AF919F918F917F916F915F914F916A
:1006D0003F912F910F900BBE0F900FBE0F901F9068
:1006E000189526E632E0FC01318320833ECF1F932C
:1006F000CF93DF93EC01162F6E8D6695617081E0CC
:100700006827812FB3D161E0812F77D1812F90E0CD
:10071000FC01E25BFE4FE491E88BFC01EC56FE4FDE
:10072000E491F0E0EE0FFF1FEC50FE4F85919491A5
:100730009A8B898BDF91CF911F9108951F93CF934F
:10074000DF93EC01162F60E0812F57D18E8D81FD54
:1007500003C061E0812F8AD11C87812F90E0FC01CA
:10076000E25BFE4FE491ED87FC01EC56FE4FE49115
:10077000F0E0EE0FFF1FE652FE4F859194919F87A8
:100780008E87DF91CF911F910895FF920F931F9352
:10079000CF93DF93EC01F62E522F1B821A8208EEC4
:1007A00013E020E030E00C831D832E833F8386E638
:1007B00092E0998388831F8A1E8A198E188E1B8E59
:1007C0001A8E1D8E1C8E8E8D8E7F50FB81F98E8F22
:1007D000642FCE018CDF6F2DCE01DF91CF911F9161
:1007E0000F91FF90ABCF0F931F93CF93DF93EC014B
:1007F0009A01AB011B8E1A8E198E188E1F8A1E8AC3
:1008000060E079E08DE390E054D5C90124303105F2
:1008100020F0B9016350710902C061E070E07D8F82
:100820006C8F1C8506EF010F043048F06EEC610FF1
:10083000643028F062EC610F683008F07DC0B901C7
:10084000769567956431710518F06351710902C09E
:1008500061E070E07F8B6E8B069718F0C9010597F9
:1008600002C081E090E0998F888FC901880F991F9D
:10087000820F931F96958795969587958D30910554
:1008800010F00C9702C081E090E09B8F8A8F0430BB
:1008900060F08EEC810F843040F082EC810F883064
:1008A00008F050C0A8E6B0E04FC0A8E6B0E0E8E627
:1008B000F0E09081043028F01E53183010F484E0EA
:1008C00001C081E0892B8C932C8536EF320F3430B8
:1008D00058F08EEC820F843038F082EC820F883032
:1008E00030F48DE690E005C08BE690E002C080E039
:1008F00090E09C8B8B8B343010F426500BC022334D
:1009000079F0233379F0243379F082EC820F883048
:1009100068F4282F81E001C0880F2A95EAF707C004
:1009200088E005C084E003C082E001C081E08D8BD7
:100930008C8D9D8D0197F1F7CE01DF91CF911F91A5
:100940000F9129CEA0E0B0E0883008F4B0CFE0E00D
:10095000F0E0AFCF90E0FC013197E231F10508F013
:100960004BC0EE58FF4FC1C4809180008F7703C009
:10097000809180008F7D8093800008958091800019
:10098000877FF9CF84B58F7702C084B58F7D84BD12
:1009900008958091B0008F7703C08091B0008F7D63
:1009A0008093B0000895809190008F7707C0809168
:1009B00090008F7D03C080919000877F809390008E
:1009C00008958091A0008F7707C08091A0008F7D4F
:1009D00003C08091A000877F8093A000089580913C
:1009E00020018F7707C0809120018F7D03C0809107
:1009F0002001877F809320010895CF93DF9390E0BB
:100A0000FC01E25BFE4F2491FC01EC56FE4F849109
:100A1000882349F190E0880F991FFC01E25FFD4FA8
:100A2000A591B4918C509E4FFC01C591D4919FB774
:100A3000611108C0F8948C91209582238C93888151
:100A400082230AC0623051F4F8948C91322F309591
:100A500083238C938881822B888304C0F8948C91A3
:100A6000822B8C939FBFDF91CF9108950F931F939B
:100A7000CF93DF931F92CDB7DEB7282F30E0F90177
:100A8000E85FFE4F8491F901E25BFE4F1491F9019A
:100A9000EC56FE4F04910023C1F0882319F06983BE
:100AA00059DF6981E02FF0E0EE0FFF1FEC50FE4FA1
:100AB000A591B4919FB7F8948C91611103C01095E2
:100AC000812301C0812B8C939FBF0F90DF91CF9129
:100AD0001F910F910895FC01818D228D90E0805C23
:100AE0009F4F821B91098F7399270895FC01918D67
:100AF000828D981731F0828DE80FF11D858D90E081
:100B000008958FEF9FEF0895FC01918D828D9817C6
:100B100061F0828DDF01A80FB11D5D968C91928DE1
:100B20009F5F9F73928F90E008958FEF9FEF0895DE
:100B300089E397E0892B39F080E090E0892B19F068
:100B400098D1811125C080E090E0892B41F080E0B0
:100B500090E0892B21F00E94000081111CC080E0F0
:100B600090E0892B41F080E090E0892B21F00E94F9
:100B70000000811113C080E090E0892BA1F080E09B
:100B800090E0892B81F00E94000081110AC0089535
:100B90000E940000D8CF0E940000E1CF0E94000018
:100BA000EACF0C9400000895FC01848DDF01A80FAA
:100BB000B11DA35ABF4F2C91848D90E001968F7385
:100BC0009927848FA689B7892C93A089B1898C91A4
:100BD00080648C93938D848D981306C00288F3896A
:100BE000E02D80818F7D80830895CF93DF93EC018A
:100BF000888D8823C1F0EA89FB89808185FD05C045
:100C0000A889B9898C9186FD0EC00FB607FCF5CF77
:100C1000808185FFF2CFA889B9898C9185FFEDCFBE
:100C2000CE01C2DFE8CFDF91CF910895CF92DF925E
:100C3000FF920F931F93CF93DF931F92CDB7DEB731
:100C40006C0181E0D60158968C9358975B969C91E5
:100C50005B975C968C915C97981307C05096ED91CA
:100C6000FC915197808185FD2DC0F601038D10E028
:100C70000F5F1F4F0F731127F02EF601848DF812AE
:100C800010C00FB607FCF9CFD6015096ED91FC913C
:100C90005197808185FFF1CFC601698385DF698126
:100CA000ECCF838DE80FF11DE35AFF4F6083D6012F
:100CB0005B960C935B975296ED91FC9153978081D4
:100CC00080620CC0D6015696ED91FC9157976083D7
:100CD0005096ED91FC91519780818064808381E0F2
:100CE00090E00F90DF91CF911F910F91FF90DF90D7
:100CF000CF900895BF92CF92DF92EF92FF92CF9361
:100D0000DF93EC016A017B01B22EE889F98982E068
:100D10008083411581EE58076105710599F060E007
:100D200079E08DE390E0A7019601A1D2215031092D
:100D3000410951095695479537952795211580E129
:100D4000380790F0E889F989108260E874E88EE14C
:100D500090E0A70196018BD2215031094109510938
:100D60005695479537952795EC85FD853083EE851B
:100D7000FF852083188EEC89FD89B082EA89FB8982
:100D8000808180618083EA89FB898081886080839B
:100D9000EA89FB89808180688083EA89FB89808178
:100DA0008F7D8083DF91CF91FF90EF90DF90CF9088
:100DB000BF9008951F920F920FB60F9211240BB699
:100DC0000F922F938F939F93EF93FF93E09145039F
:100DD000F09146038081E0914B03F0914C0382FD3A
:100DE00012C0908180914E038F5F8F7320914F03CB
:100DF000821751F0E0914E03F0E0EB5CFC4F958FD1
:100E000080934E0301C08081FF91EF919F918F915C
:100E10002F910F900BBE0F900FBE0F901F90189543
:100E20001F920F920FB60F9211240BB60F922F93B1
:100E30003F934F935F936F937F938F939F93AF9362
:100E4000BF93EF93FF9385E393E0AEDEFF91EF91C5
:100E5000BF91AF919F918F917F916F915F914F91D2
:100E60003F912F910F900BBE0F900FBE0F901F90D0
:100E7000189585E393E02FDE21E0892B09F420E02B
:100E8000822F0895109238031092370388EE93E072
:100E9000A0E0B0E08093390390933A03A0933B0322
:100EA000B0933C0386E792E090933603809335033A
:100EB00085EC90E0909342038093410384EC90E0B2
:100EC000909344038093430380EC90E09093460317
:100ED0008093450381EC90E090934803809347030F
:100EE00082EC90E090934A038093490386EC90E073
:100EF00090934C0380934B0310924E0310924F0338
:100F000010925003109251030895CF92DF92EF9206
:100F1000FF920F931F93CF93DF937C016A01EB0144
:100F200000E010E00C151D0571F06991D701ED91FD
:100F3000FC910190F081E02DC7011995892B19F0E2
:100F40000F5F1F4FEFCFC801DF91CF911F910F911E
:100F5000FF90EF90DF90CF9008959AC9DC01ED915A
:100F6000FC910190F081E02D199462E872E090C943
:100F70000F931F93CF93DF93EC018AD98C01CE019D
:100F8000F4DF800F911FDF91CF911F910F91089592
:100F90008F929F92AF92BF92CF92DF92EF92FF9289
:100FA0000F931F93CF93DF93CDB7DEB7A1970FB603
:100FB000F894DEBF0FBECDBF7C01C42EE52FCB0160
:100FC000D22E19A221E02D1510F02AE0D22E8E018A
:100FD0000F5D1F4F8D2C912CA12CB12C6C2D7E2FD1
:100FE000A501940144D18C2DD29E80191124015069
:100FF00011098A3014F4805D01C0895CF801808396
:10100000211531054105510521F0C22EE32FCA01FA
:10101000E5CFB801C7013CD9A1960FB6F894DEBF61
:101020000FBECDBFDF91CF911F910F91FF90EF9039
:10103000DF90CF90BF90AF909F908F900895CF9208
:10104000DF92EF92FF920F931F93CF93DF93EC0108
:101050006A017B012115310579F4E881F98101905C
:10106000F081E02D642FDF91CF911F910F91FF90C0
:10107000EF90DF90CF9019942A303105D9F477FFA3
:1010800018C06DE26BDF8C0144275527BA014C195B
:101090005D096E097F092AE0CE017ADF800F911F7A
:1010A000DF91CF911F910F91FF90EF90DF90CF9044
:1010B00008952AE0B701A601CE01DF91CF911F91DB
:1010C0000F91FF90EF90DF90CF9062CF9A01AB012C
:1010D000662757FD6095762FB2CF089553D0FDDF78
:1010E000FDD8C8E9D5E057D92097E9F321DDFBCF3A
:1010F0001F920F920FB60F9211242F933F938F934D
:101100009F93AF93BF938091D3039091D403A09109
:10111000D503B091D6033091D20323E0230F2D37AE
:1011200020F40196A11DB11D05C026E8230F0296EB
:10113000A11DB11D2093D2038093D3039093D403B8
:10114000A093D503B093D6038091D7039091D80391
:10115000A091D903B091DA030196A11DB11D80932E
:10116000D7039093D803A093D903B093DA03BF9128
:10117000AF919F918F913F912F910F900FBE0F9044
:101180001F901895789484B5826084BD84B5816081
:1011900084BD85B5826085BD85B5816085BDEEE67F
:1011A000F0E0808181608083E1E8F0E0108280815E
:1011B00082608083808181608083E0E8F0E08081CC
:1011C00081608083E1EBF0E0808184608083E0EBEC
:1011D000F0E0808181608083E1E9F0E080818260DD
:1011E0008083808181608083E0E9F0E0808181609C
:1011F0008083E1EAF0E08081826080838081816089
:101200008083E0EAF0E0808181608083E1E2F1E0C8
:10121000808182608083808181608083E0E2F1E070
:10122000808181608083EAE7F0E080818460808350
:1012300080818260808380818160808380818068FA
:1012400080831092C100089597FB072E16F4009436
:1012500006D077FD08D053D007FC05D03EF490951A
:1012600081959F4F0895709561957F4F0895A1E2F4
:101270001A2EAA1BBB1BFD010DC0AA1FBB1FEE1F10
:10128000FF1FA217B307E407F50720F0A21BB30B5B
:10129000E40BF50B661F771F881F991F1A9469F7D7
:1012A00060957095809590959B01AC01BD01CF0133
:1012B0000895052E97FB16F400940FD057FD05D026
:1012C000D6DF07FC02D046F408C050954095309513
:1012D00021953F4F4F4F5F4F0895909580957095A2
:1012E00061957F4F8F4F9F4F0895EE0FFF1F059021
:1012F000F491E02D19940790F691E02D1994AA1B12
:10130000BB1B51E107C0AA1FBB1FA617B70710F0F0
:10131000A61BB70B881F991F5A95A9F78095909522
:10132000BC01CD01089512E0CCE2D2E000E005C09E
:1013300022970109FE010BBFDEDFCE32D10780E02C
:081340000807B1F7F894FFCF94
:1013480001005465726D696E616C200020696E69D8
:10135800636961646F210A00446967697465206F75
:1013680020736575206E6F6D653A200053656A615C
:101378002062656D2076696E646F2000206163616C
:10138800626F7520646520736520636F6E65637492
:1013980061722100566F6365206469737365203A32
:1013A8002000000000002402850790020302760254
:1013B800A60200000000160685076B058405760561
:1013C800F5050D0A006E616E00696E66006F76663F
:0413D800002E0000E3
:00000001FF
